:020000040800F2
:10000000B8040020ED0100085F120008190700087D
:100010005D120008D90200088F14000800000000DB
:100020000000000000000000000000006312000853
:10003000F5020008000000006112000865120008C7
:10004000070200080702000807020008070200086C
:10005000070200080702000807020008070200085C
:10006000070200080702000807020008DD02000876
:10007000070200080702000807020008070200083C
:1000800007020008000000005902000807020008EB
:10009000070200080702000807020008070200081C
:1000A000070200080702000807020008070200080C
:1000B00007020008070200080702000807020008FC
:1000C00007020008070200080702000807020008EC
:1000D00007020008070200080702000807020008DC
:1000E00007020008070200080702000807020008CC
:1000F00007020008070200080702000800000000CD
:1001000000000000070200080000000007020008CD
:1001100007020008000000000702000807020008AC
:10012000070200080702000807020008070200088B
:10013000070200080000000000000000070200089D
:10014000070200080702000800000000000000008D
:10015000000000000000000000000000000000009F
:10016000000000000000000000000000070200087E
:10017000070200080000000000000000000000006E
:10018000000000000702000800000000000000005E
:10019000000000000000000000000000000000005F
:1001A000000000000000000007020008070200082D
:1001B000070200080702000807020008000000000C
:1001C000000000000702000800000000000000001E
:1001D0000702000807020008DFF80CD000F02AF838
:1001E00000480047D1140008B804002006488047A2
:1001F00006480047FEE7FEE7FEE7FEE7FEE7FEE70C
:10020000FEE7FEE7FEE7FEE755130008D901000808
:10021000D2B201E000F8012B491EFBD27047002248
:10022000F6E710B513460A4604461946FFF7F0FFF5
:10023000204610BD064C074D06E0E06840F0010383
:1002400094E8070098471034AC42F6D3FFF7C8FF94
:100250000C1600082C16000870B54FF0A04420685A
:10026000C0F3801000280DD00921204600F0E7FAE5
:10027000054D288040F20F11204600F0E0FA68801A
:100280004020206070BD0000020000200F4808B52B
:10029000016841F001010160016841F480310160B1
:1002A0000B490C4A0968B1FBF2F1C9000A22B1FB03
:1002B000F2F1009109B1491EFBE7016841F002012A
:1002C0000160016841F40031016008BD0008005080
:1002D00018000020400D0300FEE7000004480168FC
:1002E000C1F3400111B101214160704700687047BE
:1002F000000002407047FEE70248816842681144EE
:10030000816070470C00002010B50024032000F02D
:1003100069F8002000F008F808B1012401E000F0BD
:1003200025F8204610BD000070B50E4E054600248D
:10033000706898B14FF47A71B1FBF0F00A4909681E
:10034000B1FBF0F000F060F840B9102D06D20022A9
:100350002946501E00F026F8356000E001242046B2
:1003600070BD00000C000020180000200B4808B5EC
:10037000016E41F001010166016E01F00101009181
:10038000816D41F080518165806D00F0805000905A
:100390000348816841F48041816008BD001002403B
:1003A00000700040F0B40E4B1B680C46C3F30223F0
:1003B000C3F10705042D00D90425191D072901D211
:1003C000002300E0DB1E012606FA05F1491E21404C
:1003D00099409E40761E16403143F0BC01F058B85B
:1003E0000CED00E0064900F0070208684FF6FF0335
:1003F000184040EA0220034A10430860704700009A
:100400000CED00E00000FA0510B5401EB0F1807F51
:1004100001D3012010BD4FF0E02460610F2160176F
:1004200001F036F80020A06107202061002010BDF7
:10043000F0B590F83C20012A4AD0012280F83C20F7
:10044000CA688B6822F440721A434B6822F48062B7
:100450001A430B6822F400621A430B6922F480529B
:100460001A434B6922F400521A430B6B22F4804268
:100470001A430B8B22F4702242EA0342154C0368A4
:100480000026154DA34201D0AB4203D1CF6922F023
:1004900080523A43A34201D0AB4214D10F8D22F4D3
:1004A000700242EA07520F6A22F080723A434F6AA2
:1004B00022F000723A43A34201D0AB4203D1C96A91
:1004C00022F000520A435A6480F83C600020F0BDDC
:1004D0000220F0BD002C014000340140F0B590F83E
:1004E0003C20012A3AD0012580F83C50022280F8B5
:1004F0003D2003685A689C68194E1A4FB34201D0D8
:10050000BB4204D122F4700C4A6842EA0C02DFF8C4
:1005100058C002EA0C02D1F800C04CEA020CC3F841
:1005200004C00268B2420DD0B2F1804F0AD00F4B26
:100530009A4207D00E4B9A4204D0BA4202D00D4BD9
:100540009A4204D1896824F080031943916080F8AD
:100550003D50002180F83C100846F0BD0220F0BD5F
:10056000002C0140003401408FFFFFFD00040040DB
:10057000000800400040014010B5040003D094F88A
:100580003D0010B107E0012010BD002084F83C00C0
:10059000204600F023F8022084F83D00211D206849
:1005A00000F0E6FE012084F8480084F83E0084F85C
:1005B0003F0084F8400084F8410084F8420084F849
:1005C000430084F8440084F8450084F8460084F829
:1005D000470084F83D00002010BD000008B50C4A1B
:1005E00001680C48914207D1016E41F40051016647
:1005F000006E00F4005009E0074A914207D1016EF5
:1006000041F480310166006E00F48030009008BD36
:1006100000340140001002400040014070B5044623
:1006200090F83C00012815D0012584F83C500220A8
:1006300084F83D0022689068354B184020F47F40D4
:1006400090600868B0F5805F4FD010DC10F00F0F9D
:1006500003D04AE04FF0020070BD4FEA2012082A92
:1006600043D2DFE802F0505050504831391A294B3C
:10067000C21A984247D009DCB0F5005F18D0B0F13B
:10068000101F40D012F110012FD13CE0102A3AD0B7
:10069000302A38D0402A28D135E0CB68D1E9012171
:1006A000206800F0BDFE2068816841F0770109E014
:1006B000CB68D1E90121206800F0B2FE2068816892
:1006C00041F48041816010E0CA684968206800F008
:1006D000BBFE5021206806E0CA684968206800F027
:1006E000C4FE6021206800F0A5FE84F83D50002083
:1006F00084F83C0070BDCA684968206800F0A4FE18
:1007000040212068EFE7226801461046EBE7000031
:1007100088FFCEFF30001000FEE7000008B5002083
:1007200000904FF0A040816811F0010F30D1816836
:10073000184A11408160826817490A4042F080528D
:100740008260164A164B1268B2FBF3F202EB820289
:1007500052000A23B2FBF3F200E0521E0092002A7C
:10076000FBD182680F4B1A4042F0004282600E4A71
:100770009368DB0FFCD140220092521E0092FCD104
:1007800082680A40521C8260016811F0010FFBD0A0
:1007900008BD0000C0FFFF5FC0FFFF7F1800002002
:1007A000400D0300C0FFFF3F0001005030B54FF087
:1007B000A0444B68A46800220E4D04F00104AD680B
:1007C00005F001052C4302D00122104630BD0A4D30
:1007D00053B10C681C43D1E902310B4381681C43BF
:1007E00029400C438460F0E7836809682B400B4381
:1007F0008360EAE700010050E030C0FF10B54B68AD
:100800008468002214F0010F02D00122104610BDAE
:1008100033B1D1E902342343C46824F0047403E003
:10082000C368CC6823F004732343C360D1E900316B
:100830000B43C16C6FF308010B43C364E6E70C2262
:1008400002EA91110844D0F8800080B2704710B5D8
:10085000C36C01F01F011F248C40C2F38462A343C8
:100860008A401343C36410BD30B58368002213F07F
:10087000010F02D00122104630BDD1E900342343DC
:100880008968C4684CF21805AC4321430B43C3602C
:10089000F1E7000070B54C688368002213F0010F87
:1008A00002D00122104670BD002C0E4B0C6807D000
:1008B0008D682C43D1E9035635432C434D6904E040
:1008C000CD682C43D1E9045635432C43C5681D40FF
:1008D0002C43C4604968036B23F00F030B4303638D
:1008E000E0E700001CC0F0FF0C2303EA911310B5F1
:1008F0001844036B01F01F011F248C40C2F3846273
:10090000A3438A401343036310BD042303EAD15376
:1009100010B518444369C1F3045107248C40A34324
:100920008A401343436110BD10B550F8B03FC1F386
:100930001204A34302F01804024AE2400A4013439F
:10094000036010BDFFFF0700044908B58A6C02432D
:100950008A64896C0140009108BD000000100240CB
:10096000044908B5CA6C0243CA64C96C01400091CD
:1009700008BD000000100240044908B5CA6C0243DB
:10098000CA64C96C0140009108BD0000001002401B
:10099000044908B5CA6C0243CA64C96C014000919D
:1009A00008BD000000100240F0B5002501F0100362
:1009B0000126946807689E40BE430FD054B3066872
:1009C000C02C0DD040F6FC7199408E431168214334
:1009D000D468214399400E43066023E001252DE0B1
:1009E000C0249C40A64326430660046E40F60F7662
:1009F0009E40B44316685768B608BF0846EA072603
:100A00009E4034430466C1F3C01100EB8101D468F9
:100A10008C6507E00168FC249C40A14314689C405D
:100A200021430160C46B072199408C43D2E904162D
:100A300092693143114399400C43C4632846F0BD89
:100A400010B5C36B01F010014FF400748C40A34348
:100A50008A401343C36310BDF0B50A68032492FAB9
:100A6000A2F2B2FA82F30F257BE0324601269E40C5
:100A7000324075D0D1F804E0066892FAA2F7B7FACE
:100A800087F74FEA470C04FA0CF7BE4392FAA2F735
:100A9000B7FA87F77F000EFA07FE46EA0E060660F1
:100AA0004E68012E01D0022E15D1D1F808E08668DB
:100AB00092FAA2F7B7FA87F74FEA470C04FA0CF755
:100AC000BE4392FAA2F7B7FA87F77F000EFA07FE45
:100AD00046EA0E068660D1F810C0C66892FAA2F700
:100AE000B7FA87F77F0004FA07FE92FAA2F7B7FA7F
:100AF00087F77F0026EA0E060CFA07FC46EA0C068A
:100B0000C6604E68022E2BD1FF2A14D84E69076AA0
:100B100092FAA2FCBCFA8CFC4FEA8C0C05FA0CFC95
:100B200092FAA2F2B2FA82F2920027EA0C079640F9
:100B30003743076214E04F69466A120A92FAA2FC30
:100B4000BCFA8CFC4FEA8C0C05FA0CFC92FAA2F26F
:100B5000B2FA82F2920026EA0C0697403E434662C1
:100B60005B1C0A681646DA407FF47FAF4A68012AA8
:100B700001D0022A07D1CB6841683246914306FB77
:100B800003F2114341600020F0BD000003498A6870
:100B900022F0F00202438A60704700000010024019
:100BA00001490860704700001800002030B50A7B3A
:100BB0008B681F4C1A434B6822F480621A430B68FF
:100BC00022F400621A43CB8922F480521A430B6943
:100BD00022F400521A43CB6A22F480421A4322F4D0
:100BE00000421A43114B984201D0A04207D14D69EF
:100BF00022F470222A438D6922F080522A439842BF
:100C000001D0A0420FD14B6A22F470021A43CB6983
:100C100022F080721A430B6A22F000721A43896A2A
:100C200022F000520A434264002030BD002C0140F3
:100C3000003401402DE9F0430268224B224D234E3F
:100C4000234C4FF08049984207D0484505D0A84230
:100C500003D0B04201D0A04203D14F6822F070020D
:100C60003A431C4FDFF870C0DFF8708098420DD017
:100C700048450BD0A84209D0B04207D0A04205D0C9
:100C8000B84203D0604501D0404503D1CD6822F47D
:100C900040722A4302608A68C2620A88826298426D
:100CA00007D0A04205D0B84203D0604501D04045EE
:100CB00001D109690163416941F0010141610020ED
:100CC000BDE8F083002C0140000400400008004013
:100CD0000034014000400140004401400048014010
:100CE00008B54FF0E0210A690092421C00D0401C78
:100CF0000A69D20300D5401E0028F9D108BD0000C2
:100D00002DE9F04198B0002414941594182106A8F8
:100D10001694FFF784FA11941294139410940C947F
:100D20000D940E94182168460F94FFF778FA4FF44B
:100D30000050FFF721FE0120FFF71EFE0220FFF703
:100D40001BFE01270325CDE900754FF09048694649
:100D500040460494FFF780FE0226CDE9006569460F
:100D600040460494FFF778FE0420CDE9000569466B
:100D700004944046FFF770FEDFF80C82CDE9006571
:100D8000694640460494FFF767FEF002CDE900058E
:100D9000694604944046FFF75FFE7C48D0F800188F
:100DA00021F0FF0141F00501C0F8001878490A78E8
:100DB000825844F210039A430B78C2500A78825842
:100DC0000B7822F44052C2500A7882580B7842F0D5
:100DD0002002C2500A7882580B7822F04002C2509A
:100DE0000A7882580B7842F08002C2500A78825802
:100DF0000B7822F4407242F48072C2500A78825812
:100E0000097822F4406242F48062425061480068EE
:100E1000C0F30220011D072901D2002000E0C01EFE
:100E200004FA00F108015C49B84681F800044FF06B
:100E3000E0214FF48020C1F800014FF0A047149446
:100E4000159414A938461694FFF70EFD4FF4A460CC
:100E50000690CDE90764CDE9094506A938460B940B
:100E6000FFF718FDD7F8C0006FF30D00C7F8C000FA
:100E7000386920F480303861386940F20345A8436E
:100E80003861B86845490840B860B86844490840C6
:100E900040F08050B860109410A942481194FFF7B8
:100EA00085FCCDE90C480E940CA938460F94FFF749
:100EB000A5FCF8683C49084040F00040F8603869FB
:100EC000A8433861F86820F4406040F48060F8601E
:100ED000786840F008007860786820F00400786056
:100EE000324C062122463846FFF7FEFC00222146FE
:100EF0003846FFF70AFD7F2221463846FFF714FDEA
:100F0000640022460C213846FFF7EEFC0022214601
:100F10003846FFF7FAFC7F2221463846FFF704FDEA
:100F2000234C122122463846FFF7DEFC00222146E0
:100F30003846FFF7EAFC7F2221463846FFF7F4FCEB
:100F40001C4C022221463846FFF7DFFC7F22214657
:100F50003846FFF7E9FC224609213846FFF777FCBF
:100F6000154C022221463846FFF7CFFC7F2221464E
:100F70003846FFF7D9FC224640F20F113846FFF7FA
:100F800066FC18B0BDE8F081000400480000024093
:100F9000061600080CED00E012E000E0C0FFFF5F65
:100FA000C0FFFF7F00030050FFFFDF7F020030041F
:100FB0000800900C0008302E0010603270B58EB022
:100FC0001C216846FFF72BF9182107A8FFF727F91E
:100FD0004FF48030FFF7DCFC0120FFF7D9FC00253F
:100FE000102003240B95CDE907044FF0904607A984
:100FF0003046FFF731FD20200B95CDE9070407A906
:101000003046FFF729FD1B4E1B4C0022314620467F
:10101000FFF716FD0C20CDE90005802002904FF46B
:101020003060CDE9030505956A46314620460695B0
:10103000FFF7BAFC206840F002002060E06B20F46B
:101040008070E0630D4E002231462046FFF7F8FC29
:101050000420059500906A4631462046FFF7A4FC1F
:10106000206840F400302060E06B20F08070E06386
:101070000EB070BD0100110200080050F2004235B0
:1010800010B50420FFF760FC0120FFF75DFC0B4862
:101090000068C0F30220011D072901D2002000E0F2
:1010A000C01E002181400801054981F800044FF06D
:1010B000E0214FF40060C1F8000110BD0CED00E02C
:1010C0000BE000E010B50120FFF74AFCBDE810403E
:1010D0000220FFF745BC000010B588B00024184876
:1010E0000094019402940394049405941349069483
:1010F00001600A21C0E901144FF47A71C0E90314B8
:1011000044618461FFF738FA08B1FFF7F4F84FF44F
:101110008050009069460A48FFF780FA08B1FFF74F
:10112000EAF82020049004A906940548FFF7D6F9B0
:10113000002801D0FFF7DFF808B010BD00400140E3
:101140006800002030B593B014210CA8FFF767F8B1
:1011500030216846FFF763F81A48016E41F40061D8
:101160000166006E002500F4006011904FF47A7063
:10117000ADF83000CDE90D50134C0F950CA9204669
:101180001095FFF757FD206820F080002060A068D0
:101190000E490840A06060680D49084040F02000FA
:1011A0006060606820F470006060A06820F08000DB
:1011B000A0600695694620460A95FFF7F7FC13B034
:1011C00030BD000000100240002C0140F8BFFEFFBF
:1011D0008FFFFFFD10B594B0002412941394109467
:1011E00011940D940E94342168460F94FFF717F86C
:1011F0001948184901609621C0E90114C900C0E9E5
:10120000031444618461FFF7B7F908B1FFF773F87D
:101210004FF48050109010A90F48FFF7FFF908B164
:10122000FFF769F82020CDE90D040DA90A480F94B5
:10123000FFF754F908B1FFF75EF8079469460648CE
:101240000B94FFF7F5F8002801D0FFF754F814B01D
:1012500010BD0000003401401C000020FEE7704774
:1012600070477047FFF748B8334810B5016821F060
:101270000F0141F008010160304850F8801F21F44F
:10128000807101602E4C206840F4807020602068DE
:10129000C0F380200028FAD0606820F0FE4040F0C3
:1012A00080406060E16845F23250264A11400843B0
:1012B000E060E06840F08070E060206840F080709E
:1012C00020602068C0F340600028FAD0A06840F099
:1012D0000300A0608020FFF759FCA06800F00C001C
:1012E0000C28FAD11848016841F080710160174854
:1012F000016841F0010101600021416041686429F9
:10130000FCD30020FFF742FCA06820F4E060A0605E
:10131000A06820F46050A0600D48FFF741FC002059
:10132000FFF702F800B1FEE754F8880F20F04050B4
:1013300040F00050206010BD0020024000700040CE
:10134000001002400C80FFF9FCED00E0001000E00E
:1013500080FE210A0548016841F4700101600349DB
:101360004FF00060803908607047000088ED00E0B1
:101370002DE9F0430268234B234D244E244C4FF0BB
:101380008049984207D0484505D0A84203D0B042D2
:1013900001D0A04203D122F070074A683A431D4FA2
:1013A000DFF874C0DFF8748098420DD048450BD048
:1013B000A84209D0B04207D0A04205D0B84203D01D
:1013C000604501D0404503D122F44075CA682A43E4
:1013D0004D6922F080022A4302608A68C2620A686C
:1013E0008262984207D0A04205D0B84203D060453F
:1013F00001D0404501D10969016301214161BDE886
:10140000F0830000002C0140000400400008004070
:1014100000340140004001400044014000480140C8
:1014200010B5846842EA032224F47F440A4322432D
:10143000826010BD8268034B1A400A4342F00701E4
:10144000816070478FFFCFFF10B5036A046A24F0F4
:1014500001040462846924F0F00444EA021423F0D5
:101460000A020A438461026210BD10B5036A23F0C8
:10147000100303628369046A23F4704343EA02326F
:1014800024F0A00343EA01118261016210BDFEE76E
:101490000907090E002804DB00F1E02080F80014A1
:1014A000704700F00F0000F1E02080F8141D704735
:1014B00002E008C8121F08C1002AFAD1704770471D
:1014C000002001E001C1121F002AFBD1704700007B
:1014D000FEF71AFFFFF7C8FEFFF7F4FDFFF7D0FD98
:1014E000FFF70EFCFFF76AFDFFF72CFEFFF772FE19
:1014F000FFF7F2FD3A48016841F001010160394807
:10150000016841F0010101603748016841F00101C3
:101510000160FFF703F9FEF7B9FE4FF0A044A068A1
:1015200010F0010F07D0A068C0F3400018B9A06800
:10153000C0F3800000B1FEE7A0682C4F3840001DCA
:10154000A060606840F004006060606820F00800FF
:1015500060602A48264E264905780836254B264ADB
:10156000AB510378351D5A5103780A1D9B580578F5
:101570006FF30F0343F00303AB5002788A580378EC
:1015800042F00202CA5002788A58037842F00802F8
:10159000CA5002788A58007842F001020A50164E6A
:1015A0008D14361F4FF00009A6F102086420FFF7E2
:1015B00097FB35807580A06810F0010F07D0A068F8
:1015C000C0F3400018B9A068C0F3C00000B1FEE746
:1015D000A8F80090A068384040F00800A060E5E757
:1015E000002C01400040014000340140C0FFFF7F5B
:1015F00000000240400000500600002000160008D5
:10160000081C3044586C081C3044586C2C160008D8
:10161000000000201C000000B0140008481600085C
:101620001C0000209C040000C014000800000010F2
:101630000010000000000000100000000100000089
:08164000000000000024F4008A
:04000005080001D915
:00000001FF
